{
  "transactions": [
    {
      "hash": "0x2e1ad34b5fe2925dedfa07cec09b8f4495bfbdeed3117526bbda99ab6eac2fd3",
      "transactionType": "CALL",
      "contractName": null,
      "contractAddress": "0xaf4d13cac35b65d24203962ff22dc281f1c1fc5c",
      "function": "createStableAllowanceTreasury(address,address,uint256)",
      "arguments": [
        "0x0B2858d178Bdc0F43c63CC96c6228F25b27c9273",
        "0x1111111111111111111111111111111111111111",
        "100000000"
      ],
      "transaction": {
        "from": "0x0b2858d178bdc0f43c63cc96c6228f25b27c9273",
        "to": "0xaf4d13cac35b65d24203962ff22dc281f1c1fc5c",
        "gas": "0x44e76",
        "value": "0x0",
        "input": "0xa2875fa40000000000000000000000000b2858d178bdc0f43c63cc96c6228f25b27c927300000000000000000000000011111111111111111111111111111111111111110000000000000000000000000000000000000000000000000000000005f5e100",
        "nonce": "0x9",
        "chainId": "0x2105"
      },
      "additionalContracts": [
        {
          "transactionType": "CREATE",
          "contractName": null,
          "address": "0xa747872d59843411aa945a36d12265cd5629aa6d",
          "initCode": "0x3d602d80600a3d3981f3363d3d373d3d3d363d738eb38e1c054d212b153fc28ae16595fabfe491745af43d82803e903d91602b57fd5bf3"
        }
      ],
      "isFixedGasLimit": false
    }
  ],
  "receipts": [
    {
      "status": "0x1",
      "cumulativeGasUsed": "0x366c5d8",
      "logs": [
        {
          "address": "0xa747872d59843411aa945a36d12265cd5629aa6d",
          "topics": [
            "0x5f76695398a66a0bb95b8ba5712093366d30d27d4e856e7a6e6d754cf88cb62b",
            "0x0000000000000000000000000b2858d178bdc0f43c63cc96c6228f25b27c9273",
            "0x0000000000000000000000001111111111111111111111111111111111111111"
          ],
          "data": "0x0000000000000000000000000000000000000000000000000000000005f5e100",
          "blockHash": "0x9957ce535b71d2ba0c81c87dc2e56b6daad70681ca82c9e513eac6b468003318",
          "blockNumber": "0x27d17a5",
          "blockTimestamp": "0x69848c2d",
          "transactionHash": "0x2e1ad34b5fe2925dedfa07cec09b8f4495bfbdeed3117526bbda99ab6eac2fd3",
          "transactionIndex": "0x3cf",
          "logIndex": "0x66",
          "removed": false
        },
        {
          "address": "0xa747872d59843411aa945a36d12265cd5629aa6d",
          "topics": [
            "0x7f26b83ff96e1f2b6a682f133852f6798a09c465da95921460cefb3847402498"
          ],
          "data": "0x0000000000000000000000000000000000000000000000000000000000000001",
          "blockHash": "0x9957ce535b71d2ba0c81c87dc2e56b6daad70681ca82c9e513eac6b468003318",
          "blockNumber": "0x27d17a5",
          "blockTimestamp": "0x69848c2d",
          "transactionHash": "0x2e1ad34b5fe2925dedfa07cec09b8f4495bfbdeed3117526bbda99ab6eac2fd3",
          "transactionIndex": "0x3cf",
          "logIndex": "0x67",
          "removed": false
        },
        {
          "address": "0xaf4d13cac35b65d24203962ff22dc281f1c1fc5c",
          "topics": [
            "0xc3f950d0a7d631c610324f5ea3d9d5c98e91e9090e656fb7a4109b41a656fb00",
            "0x0000000000000000000000000b2858d178bdc0f43c63cc96c6228f25b27c9273",
            "0x000000000000000000000000a747872d59843411aa945a36d12265cd5629aa6d",
            "0x0000000000000000000000000b2858d178bdc0f43c63cc96c6228f25b27c9273"
          ],
          "data": "0x",
          "blockHash": "0x9957ce535b71d2ba0c81c87dc2e56b6daad70681ca82c9e513eac6b468003318",
          "blockNumber": "0x27d17a5",
          "blockTimestamp": "0x69848c2d",
          "transactionHash": "0x2e1ad34b5fe2925dedfa07cec09b8f4495bfbdeed3117526bbda99ab6eac2fd3",
          "transactionIndex": "0x3cf",
          "logIndex": "0x68",
          "removed": false
        }
      ],
      "logsBloom": "0x00100000000000000000000000000000000000200000000010000000000000000003000000000000000000000000000000000000100000000200000000000000000200000000000000000004000000000000000000000000000000000000000100000000000000000000000000000000000000000000000000204000000200000000000000000000000000000200000000000000000080000000000000000000240000000000000000000000000400000000000002002000000000000000000000000000000000000000000000040000000000000000000000000000000000000000000000000008000004000000000000000000100000000000000000000000",
      "type": "0x2",
      "transactionHash": "0x2e1ad34b5fe2925dedfa07cec09b8f4495bfbdeed3117526bbda99ab6eac2fd3",
      "transactionIndex": "0x3cf",
      "blockHash": "0x9957ce535b71d2ba0c81c87dc2e56b6daad70681ca82c9e513eac6b468003318",
      "blockNumber": "0x27d17a5",
      "gasUsed": "0x2f1d2",
      "effectiveGasPrice": "0x412fa03e",
      "blobGasUsed": "0x364c",
      "from": "0x0b2858d178bdc0f43c63cc96c6228f25b27c9273",
      "to": "0xaf4d13cac35b65d24203962ff22dc281f1c1fc5c",
      "contractAddress": null,
      "daFootprintGasScalar": "0x8b",
      "l1BaseFeeScalar": "0x8dd",
      "l1BlobBaseFee": "0x528d00b",
      "l1BlobBaseFeeScalar": "0x101c12",
      "l1Fee": "0x3de3eae0a",
      "l1GasPrice": "0x7ab90175",
      "l1GasUsed": "0x640"
    }
  ],
  "libraries": [],
  "pending": [],
  "returns": {},
  "timestamp": 1770294319294,
  "chain": 8453,
  "commit": "9cdf848"
}