{
  "transactions": [
    {
      "hash": "0xb949a3772db478c645ac020ee79395d308b901fcba02b893fb2311c53fc4504f",
      "transactionType": "CALL",
      "contractName": null,
      "contractAddress": "0xaf4d13cac35b65d24203962ff22dc281f1c1fc5c",
      "function": "createStableAllowanceTreasury(address,address,uint256)",
      "arguments": [
        "0x0B2858d178Bdc0F43c63CC96c6228F25b27c9273",
        "0x1111111111111111111111111111111111111111",
        "100000000"
      ],
      "transaction": {
        "from": "0x0b2858d178bdc0f43c63cc96c6228f25b27c9273",
        "to": "0xaf4d13cac35b65d24203962ff22dc281f1c1fc5c",
        "gas": "0x44e76",
        "value": "0x0",
        "input": "0xa2875fa40000000000000000000000000b2858d178bdc0f43c63cc96c6228f25b27c927300000000000000000000000011111111111111111111111111111111111111110000000000000000000000000000000000000000000000000000000005f5e100",
        "nonce": "0x8",
        "chainId": "0x2105"
      },
      "additionalContracts": [
        {
          "transactionType": "CREATE",
          "contractName": null,
          "address": "0x535fde24e6d71658e25b91794d12c7c1c00b5adc",
          "initCode": "0x3d602d80600a3d3981f3363d3d373d3d3d363d738eb38e1c054d212b153fc28ae16595fabfe491745af43d82803e903d91602b57fd5bf3"
        }
      ],
      "isFixedGasLimit": false
    }
  ],
  "receipts": [
    {
      "status": "0x1",
      "cumulativeGasUsed": "0xceec505",
      "logs": [
        {
          "address": "0x535fde24e6d71658e25b91794d12c7c1c00b5adc",
          "topics": [
            "0x5f76695398a66a0bb95b8ba5712093366d30d27d4e856e7a6e6d754cf88cb62b",
            "0x0000000000000000000000000b2858d178bdc0f43c63cc96c6228f25b27c9273",
            "0x0000000000000000000000001111111111111111111111111111111111111111"
          ],
          "data": "0x0000000000000000000000000000000000000000000000000000000005f5e100",
          "blockHash": "0x1adf79a1f67ee4ee8021a6ecc4e1ca674ef5c7aba68f8811beac93edabe1a501",
          "blockNumber": "0x27d166a",
          "blockTimestamp": "0x698489b7",
          "transactionHash": "0xb949a3772db478c645ac020ee79395d308b901fcba02b893fb2311c53fc4504f",
          "transactionIndex": "0xe9e",
          "logIndex": "0xef",
          "removed": false
        },
        {
          "address": "0x535fde24e6d71658e25b91794d12c7c1c00b5adc",
          "topics": [
            "0x7f26b83ff96e1f2b6a682f133852f6798a09c465da95921460cefb3847402498"
          ],
          "data": "0x0000000000000000000000000000000000000000000000000000000000000001",
          "blockHash": "0x1adf79a1f67ee4ee8021a6ecc4e1ca674ef5c7aba68f8811beac93edabe1a501",
          "blockNumber": "0x27d166a",
          "blockTimestamp": "0x698489b7",
          "transactionHash": "0xb949a3772db478c645ac020ee79395d308b901fcba02b893fb2311c53fc4504f",
          "transactionIndex": "0xe9e",
          "logIndex": "0xf0",
          "removed": false
        },
        {
          "address": "0xaf4d13cac35b65d24203962ff22dc281f1c1fc5c",
          "topics": [
            "0xc3f950d0a7d631c610324f5ea3d9d5c98e91e9090e656fb7a4109b41a656fb00",
            "0x0000000000000000000000000b2858d178bdc0f43c63cc96c6228f25b27c9273",
            "0x000000000000000000000000535fde24e6d71658e25b91794d12c7c1c00b5adc",
            "0x0000000000000000000000000b2858d178bdc0f43c63cc96c6228f25b27c9273"
          ],
          "data": "0x",
          "blockHash": "0x1adf79a1f67ee4ee8021a6ecc4e1ca674ef5c7aba68f8811beac93edabe1a501",
          "blockNumber": "0x27d166a",
          "blockTimestamp": "0x698489b7",
          "transactionHash": "0xb949a3772db478c645ac020ee79395d308b901fcba02b893fb2311c53fc4504f",
          "transactionIndex": "0xe9e",
          "logIndex": "0xf1",
          "removed": false
        }
      ],
      "logsBloom": "0x80000000000000000000000000000000000000200000000010000000000000000002000000000000000000000000000000000000100000000200000000000000000200000000000000000000000000000000000000000000000000000000000900200000000000000000000000000000000002000000000000200000000200000000000000000000000000000200000000000000000080000000000000000000240000000000000000000000000400000000000000002000000000000000000000040000000000000000000000040000000000000000000000000000000000000000000000000008080000000000000000000000100000000000000000000000",
      "type": "0x2",
      "transactionHash": "0xb949a3772db478c645ac020ee79395d308b901fcba02b893fb2311c53fc4504f",
      "transactionIndex": "0xe9e",
      "blockHash": "0x1adf79a1f67ee4ee8021a6ecc4e1ca674ef5c7aba68f8811beac93edabe1a501",
      "blockNumber": "0x27d166a",
      "gasUsed": "0x2f1d2",
      "effectiveGasPrice": "0x180e59f",
      "blobGasUsed": "0x364c",
      "from": "0x0b2858d178bdc0f43c63cc96c6228f25b27c9273",
      "to": "0xaf4d13cac35b65d24203962ff22dc281f1c1fc5c",
      "contractAddress": null,
      "daFootprintGasScalar": "0x8b",
      "l1BaseFeeScalar": "0x8dd",
      "l1BlobBaseFee": "0x389601f",
      "l1BlobBaseFeeScalar": "0x101c12",
      "l1Fee": "0x249fb8ddd",
      "l1GasPrice": "0x3a8f95e6",
      "l1GasUsed": "0x640"
    }
  ],
  "libraries": [],
  "pending": [],
  "returns": {},
  "timestamp": 1770293690407,
  "chain": 8453,
  "commit": "9cdf848"
}