{
  "transactions": [
    {
      "hash": null,
      "transactionType": "CALL",
      "contractName": null,
      "contractAddress": "0xaf4d13cac35b65d24203962ff22dc281f1c1fc5c",
      "function": "createStableAllowanceTreasury(address,address,uint256)",
      "arguments": [
        "0x0B2858d178Bdc0F43c63CC96c6228F25b27c9273",
        "0x1111111111111111111111111111111111111111",
        "100000000"
      ],
      "transaction": {
        "from": "0x0b2858d178bdc0f43c63cc96c6228f25b27c9273",
        "to": "0xaf4d13cac35b65d24203962ff22dc281f1c1fc5c",
        "gas": "0x44e76",
        "value": "0x0",
        "input": "0xa2875fa40000000000000000000000000b2858d178bdc0f43c63cc96c6228f25b27c927300000000000000000000000011111111111111111111111111111111111111110000000000000000000000000000000000000000000000000000000005f5e100",
        "nonce": "0x8",
        "chainId": "0x2105"
      },
      "additionalContracts": [
        {
          "transactionType": "CREATE",
          "contractName": null,
          "address": "0x535fde24e6d71658e25b91794d12c7c1c00b5adc",
          "initCode": "0x3d602d80600a3d3981f3363d3d373d3d3d363d738eb38e1c054d212b153fc28ae16595fabfe491745af43d82803e903d91602b57fd5bf3"
        }
      ],
      "isFixedGasLimit": false
    }
  ],
  "receipts": [],
  "libraries": [],
  "pending": [],
  "returns": {},
  "timestamp": 1770293392290,
  "chain": 8453,
  "commit": "9cdf848"
}